:020000020000FC
:20000000008400141001483A10BFF80400BFFD16005040B408406D140800683A0000000061
:20000800DEFFED04DFC00015D8400215D8800315D8C00415D9000515D9400615D98007156A
:20001000D9C00815000B307ADA000915DA400A15DA800B15DAC00C15DB000D15DB400E15C4
:20001800DB800F15DBC01015D9401115EBFFFF04DBC012150009313A2880004C10000326FA
:200020002000022610200EC000000306DF401215E8BFFF17003DA03AD9401117DF401217CE
:20002800DFC000172801707AD8400217D8800317D8C00417D9000517D9400617D9800717F7
:20003000D9C00817DA000917DA400A17DA800B17DAC00C17DB000D17DB400E17DB800F17CA
:20003800DBC01017DEC01304EF80083ADEFFF904DFC00615DF000515DF0005040005313A9B
:20004000E0BFFC15E0BFFC17E0BFFF15E03FFD1500800044E0BFFE15E0FFFF17E0BFFE173B
:200048001884703A1005003A1000161EE0BFFD1700C0003418C6F604100490FA10C5883A0B
:2000500011400017E0BFFD1700C0003418C6F604100490FA10C5883A1080010411000017B7
:20005800283EE83A0005313AE0BFFB15E0BFFB17E0BFFF15E0BFFF171004C03A103FE31E6A
:2000600000000706E0BFFE171085883AE0BFFE15E0BFFD1710800044E0BFFD15003FDE065B
:20006800E037883ADFC00117DF000017DEC00204F800283A008200141000003310BFF80450
:2000700000BFFD1606D00034DEC0001406800034D6A6D014008000341086E21400C0003494
:2000780018C79A1410C00326100000151080010410FFFD361022F200102315C0003FFF0676
:20008000DEFFFE04DFC00115DF000015D839883A010000342100000410202D400005883A47
:20008800E037883ADFC00117DF000017DEC00204F800283ADEFFF604DC4007152023883AC0
:200090002809883ADFC00915DCC008152827883A10202E808940021700C0003418C0050441
:2000980001C0004412000044D8C00515D9C00615D8C0030401C000848809883AD80D883AA9
:2000A000D8C00015DCC00315DA000215D9C00115D8800415102035C000FFFFC410000626AB
:2000A8001805883ADFC00917DCC00817DC400717DEC00A04F800283A00C002841805883A7A
:2000B000DFC00917DCC00817DC400717DEC00A04F800283A008000341086D004200B883A6B
:2000B8001100001710202341208000CC2011883A1000161E20C00017017FBFF4297FBFC474
:2000C00001E0207439E020041945883A11C4703A00C6303A1886703A18000C1E280D883A1E
:2000C800380B883A21000104208000171187883A1946703A0084303A10C4703A103FF926F9
:2000D00020800007100003262100004420800007103FFD1E2205C83AF800283A308002176E
:2000D800DEFFF504DF000915DD800715DC800315DFC00A15DDC00815DD400615DD000515A1
:2000E000DCC00415DC400215DC000115302D883A2039883A2825883A10001C2629C0030B94
:2000E8003880020C1000272628800417100025263880008CB5400017100028260021883A26
:2000F0000023883A880D883AE009883A0081000480006E26800F883A914007171400012EED
:2000F800100F883A90C00917183EE83A1007883A80A1C83A88A3883A00806D0EB0800217F2
:2001000010C5C83AB0800215103FEE1E0009883A2005883ADFC00A17DF000917DDC0081739
:20010800DD800717DD400617DD000517DCC00417DC800317DC400217DC000117DEC00B0426
:20011000F800283A102180001000E41E91C0030BB54000173880008C103FD81E3880004CBA
:200118001005003A100057260029883A002F883AA00042263880800C9400021710008B2655
:20012000800D883AA400A5363881200C100027269080051792000417914000171087883A95
:200128001887883A1808D7FA2A21C83A8080004420C9883A2027D07AA085883A980D883A4A
:200130009880022E1027883A100D883A3881000C1000B826300B883AE009883A10207F8005
:2001380010003126914004171009883A800D883A1023883A102101C090C0030B00BEFFC464
:200140001886703A18C0201490C0030D9C07C83A8C05883AA00D883AA021883A90800015DC
:2001480090C002159440041594C0051591000017B80B883AA023883A10210BC090C00217BE
:2001500090800017A027883A1C07C83A1405883A90C00215A021883A90800015B080021787
:200158001405C83AB0800215103FA826A469C83A91C0030BBCEF883AA03FBE1EADC00017EE
:20016000AD000117AD400204003FB906AC400017AC000117AD400204003F8A069140041754
:20016800E009883A1021F58000800304E08000159080030B013FFFC4108010149080030D35
:20017000003F93060027883A002F883AD80000150029883A98001E26D8C000171804C03A44
:2001780010005E269821883AA4C0012EA021883A91000017908004179180021791C00517D8
:200180001100022E31E3883A8C00161681C0381690C0091791400717E009883AB80D883A70
:20018800183EE83A1023883A00BFE10EA469C83AA0001826B08002171445C83AB080021564
:20019000103F72269C67C83ABC6F883A983FE21EADC00017ACC00117AD400204D8000015B7
:20019800003FDC06B80B883A880D883A10210BC090C00017E009883A900B883A1C47883ABA
:2001A00090C00015102193C0103FC91EA469C83AA03FE81EE009883A900B883A102193C0A0
:2001A800103FC31ED8000015003FE20691000017908004171100022E8023883A850031368E
:2001B00091C00517A1C0183690C0091791400717E009883AB80D883A183EE83A1021883A17
:2001B80000BFB30E1023883A1027883A003F9B06B80B883A800D883A10210BC090C00217A0
:2001C000908000178023883A1C07C83A1405883A90C0021590800015003FC406A00D883A8F
:2001C800A021883A003F8106B80B883AA00D883A10210BC090C0021790800017A021883ACB
:2001D0001D07C83A1505883AA023883AA027883A90C0021590800015003F8006B809883A2B
:2001D80001400284980D883A1020F3801000172615C5C83A1500004400800044D880001583
:2001E000003F9806B80B883A800D883A10210BC090C00017E009883A900B883A1C07883AFE
:2001E80090C000158027883A102193C0103F6B26003F7F06400B883AE009883A102119C03F
:2001F000103F76261023883A003F500600C000449D000044D8C00015003F82069080030B03
:2001F80000C00244013FFFC4108010149080030DE0C00015003F0606DEFFF60428C002C485
:2002000000800584DC800215DFC00915DF000815DDC00715DD800615DD400515DD0004154B
:20020800DCC00315DC400115DC0000152025883A10C01236044004048940142E0080030402
:200210000007883A908000151805883ADFC00917DF000817DDC00717DD800617DD400517D6
:20021800DD000417DCC00317DC800217DC400117DC000017DEC00A04F800283A00BFFE04B5
:2002200018A2703A883FED16897FEC369009883A10231C8000807DC414402B2E8806D27AF4
:2002280018003F1E880CD0FA300490FA02C000345AC1150412CB883A2C000317580F883AED
:200230002C00041E00000A061800860E840003172C0007268080011700FFFF0410C8703A11
:200238002447C83A008003C410FFF70E31BFFFC43240004402800034528117045400021764
:200240008280A0268080011700FFFF0410CA703A2C4DC83A008003C4118083165280031562
:2002480052800215300029168147883A188001179009883A108000541880011510231E8046
:2002500080C00204003FC00602C000345AC115048AC5883A14000317580F883A8806D0FA59
:2002580014006C2680C0011700BFFF04818003171886703A80C7883A1880011781400217D0
:200260009009883A1080005418800115314002152980031510231E8080C00204003FAA0642
:200268000080010410C0052E0080050410C07836198016C4300490FA003FBC068804D1BA9E
:2002700011800E04300490FA003FB80600807FC41140BB362806D0FA573FFE0400800044B7
:20027800180890FA1807D0BAE1C001175909883A2140021710C4983A8100031581400215A5
:20028000388EB03A2C00031524000215E1C001154807883A4800CD161807D0BA00800044CF
:2002880010C8983A3900443621C4703A10000A1E2109883A00BFFF044884703A3906703A25
:20029000124001041800041E2109883A3904703A4A400104103FFC26480490FA4819883AF1
:20029800023FFF04589B883A6807883A014003C41C0003171C00041E0000A7063000AB0E0A
:2002A000840003171C00A426808001171204703A144DC83A29BFF90E8100031780C002179C
:2002A800894000548445883A20C0021519000315814001151187883A3100005450800315C8
:2002B00050800215198000151100011512800215128003159009883A10231E8080C00204AD
:2002B800003F59068109883A2080011780C0021781400317108000542080011528C00215B7
:2002C000194003159009883A10231E8080C00204003F4D068080020414000317143F911E73
:2002C8001A400084003F730688C000548445883A80C00115003FDF06E400021700BFFF0420
:2002D00080C00117802D883A18AA703AAC401636AC49C83A008003C41100130E88800054D7
:2002D8008447883A808001152080005418800115E0C002159009883A10231E8080C0020498
:2002E000003F310639C00117573FFE04003FA0060080150410C067368804D33A11801B842B
:2002E800300490FA003F4106D0A01217D0E00317053FFFC41080040488A7883A1D00032679
:2002F00098C3FFC400BC000418A6703A9009883A980B883A102179001009883A1500042624
:2002F800854B883A1029883A11405A2E87000C26E400021780C0011700BFFF041884703A6A
:20030000144003361449C83A008003C4113FD3169009883A10231E800007883A003F0A062D
:2003080005C00034BDC6EC04B8800017988D883AB9800015D0E0031700BFFFC418808E264D
:200310002145C83A3085883AB880001520C001CC18005F1E000B883AA4C5883A1083FFCC09
:2003180000C400041887C83A28E7883A9009883A980B883A102179001007883A00BFFFC4C6
:2003200018807A261D05C83A9885883A10C00054B8800017A021883AA0C001159885883A37
:20032800B8800015E5000215B7003626018003C435404B3600800044A0800115003FCD060F
:200330002808D27A2000371E2808D0FA200690FA1AD1883A4180021741805B263080011781
:2003380000FFFF0410C4703A2880022E3180021741BFFA1E3200031739C001178200031574
:200340008180021507000034E70115043400031544000215003F3E0663000044608000CCCC
:2003480010005D2618C00204003F51068089883A003F6D060080550410C020368804D3FAB9
:2003500011801DC4300490FA003ED80648C000C4003F310605C00034BDC6EC04B880001744
:20035800988D883AB9800015293FB21E2083FFCC103FB01EE40002179D45883A1080005408
:2003600080800115B8C00017D0A0131710C0012ED0E01315D0A0141710FF962ED0E0141520
:20036800003F94060080010411001E362804D1BA11000E04200690FA003FC5060081550444
:2003700010C01D2E01801F840080FC04003EB7060080020410CBC83A2169883A003F9E0621
:2003780000BFFE04A93FFD042088703AB10B883A00C0014428C0021528C00115B0800117A1
:200380001080004C2084B03AB0800115313FDD2EB14002049009883A1021F580E40002173D
:20038800003FD8060080050411001536210016C4200690FA003FA6068804D4BA11801F04EF
:20039000300490FA003E99062009D0BA014000342941150400C00044288001171906983A52
:2003980010C4B03A28800115003FA3060027883A00C00044003F8606D1200315003F730668
:2003A00000801504110019362804D33A11001B84200690FA003F8E06480B883A6807883A92
:2003A800288000CC18FFFE04297FFFC4100015261880021710FFFA262109883A393F1E365A
:2003B000203F1D2621C4703A100002266013883A003EE1062109883A3904703A630001042F
:2003B800103FFC266013883A003EDB0600805504110008362804D3FA11001DC4200690FA9D
:2003C000003F73060104303A388E703AE1C00115003FE906008155041100032E01001F84E1
:2003C80000C0FC04003F6A062804D4BA11001F04200690FA003F6606008000C429403FCCA5
:2003D0002007883A1180022E2084703A10000B26313FFFC43000051E00002C06213FFFC4F9
:2003D80000BFFFC418C00044208028261880000328BFFA1E1805883AF800283A0011883AD3
:2003E0000007883A01C001044004923A18C000441151883A19FFFC1E02BFBFF452BFBFC4E4
:2003E800026020744A60200402C000C42080001731BFFF04200F883A1204F03A1287883A75
:2003F0001A46703A0084303A10C4703A10000B262080000328800F262080004321C00044AE
:2003F80028800C262080008321C0008428800926208000C321C000C42880062621000104AA
:2004000059BFEA362007883A003FD1060005883AF800283A3805883AF800283A01C003C4A3
:200408002007883A3980032E2904B03A108000CC100009263000062630CD883A2880000389
:20041000294000441880000518C0004430FFFB1E2005883AF800283A3811883A200F883AE1
:2004180028C0001731BFFC0438C00015288001173880011528C0021738C002152880031768
:20042000294004043880031539C0040441BFF436008000C41180072E1007883A28800017AE
:2004280031BFFF04294001043880001539C0010419BFFA363807883A003FDE062807883A6B
:200430002011883A29000C2E298F883A21C00A2E300007262187883A198DC83A39FFFFC459
:200438003880000318FFFFC41880000519BFFB1E2005883AF800283A01C003C439800A36BF
:20044000303FFB26400F883A320D883A28800003294000443880000539C0004439BFFB1E97
:200448002005883AF800283A1904B03A108000CC103FF31E3811883A180B883A200F883AAF
:2004500028C0001731BFFC0438C00015288001173880011528C0021738C002152880031730
:20045800294004043880031539C0040441BFF436008000C41180072E1007883A2880001776
:2004600031BFFF04294001043880001539C0010419BFFA363811883A003FD906DEFFF4044A
:20046800DD800815DC800415DC400315DFC00B15DF000A15DDC00915DD400715DD000615A8
:20047000DCC00515DC0002152825883A3023883A202D883A2800C92610231C80943FFE04D5
:2004780088C002C4008005848200011710C01B2E00BFFE04188E703A3839883A38001A16EE
:20048000E4401936013FFF044126703A99C02616802B883A9829883A84000204A80F883A0D
:20048800A70DC83A008003C41180C13638800117A549883A1080004CA084B03A3880011597
:2004900020C0011718C0005420C00115B009883A10231E808023883A0000060601C00404AC
:200498003839883AE47FE72E008003040023883AB08000158805883ADFC00B17DF000A17D8
:2004A000DDC00917DD800817DD400717DD000617DCC00517DC800417DC400317DC00021774
:2004A800DEC00C04F800283A00800034108115041240021784CD883A802B883A3240B92692
:2004B0003140011700BFFF842884703A1185883A10C0011718C0004C1807003A1800A3266D
:2004B8002908703A9929883AA1C0A30E4080004C1000551E8080001780AFC83AB8C001174C
:2004C00000BFFF041884703A30002E263240B92698A9883A2509883AD900001521C02A163D
:2004C8003080031730C002170140090499BFFF041880031510C00215B9000317B8800217DD
:2004D000B82B883ABC00020420800215110003152980E436008004C49009883A8011883A0C
:2004D80011800F2E90800017BA00040491000204B880021590C00117008006C4B8C0031525
:2004E0001180072E90C00217BA00060491000404B8C0041590800317B88005153140E726E5
:2004E80020800017DD000017B80F883A4080001520C0011740C0011520800217408002154D
:2004F000003F970698A9883AA1C01F16B8C00317B880021799BFFF0401400904B82B883A46
:2004F8001880021510C00315BC0002042980C336008004C49009883A8011883A11800F2E25
:2005000090800017BA00040491000204B880021590C00117008006C4B8C003151180072E04
:2005080090C00217BA00060491000404B8C0041590800317B88005153140C72620800017EB
:20051000B80F883A003FD906880B883AB009883A10207F801023883A1000252680800117BD
:2005180000FFFF84893FFE0410C4703A8085883A2080952699BFFF0401C00904398045367A
:20052000008004C49009883A880B883A11800F2E908000178940020491000204888000154B
:2005280090C00117008006C488C001151180072E90C00217894004049100040488C00215AB
:20053000908003178880031531C09126208000172880001520C0011728C001152080021796
:2005380028800215900B883AB009883A1021F580B009883A10231E80003F5E06300B883A7A
:20054000DFC00B17DF000A17DDC00917DD800817DD400717DD000617DCC00517DC8004173D
:20054800DC400317DC000217DEC00C0410207F8138800117E54B883A310000541080004C67
:200550001704B03A38800115290001152987883A1880011729400204B009883A1080005489
:20055800188001151021F580003F3806000D883A0009883A003F5D0630C0021730800317A3
:20056000800F883A8400020410C0021518800315003F23068809883A900B883A10210BC0F5
:20056800003FD00630800117E0C004041108703A9905883A10FF4D161705C83A870B883AE7
:20057000108000542880011580C001170080003410811504B009883A18C0004CE0C6B03AE4
:200578001140021580C0011510231E8084400204003F200698A9883A2509883AE08004044A
:20058000D900011520BF7016B8C00317B880021799BFFF04014009041880021510C00315E4
:20058800BC40020429804136008004C49009883A880F883A11800F2E90800017B9C00404BF
:2005900091000204B880021590C00117008006C4B8C003151180072E90C00217B9C0060471
:2005980091000404B8C0041590800317B880051531404026208000173880001520C001174A
:2005A00038C001152080021738800215D8C00117BF0B883AB009883A1F05C83A10800054E4
:2005A80028800115B8C0011700800034108115041140021518C0004CE0C6B03AB8C00115DD
:2005B00010231E80003EEB062080011700FFFF04800F883A10C4703A98A9883A8400020415
:2005B800003ECF06900B883A8009883A10210BC0DD000017B80F883A003EC906900B883A85
:2005C0008009883A10210BC0B80F883A003EC40690C00417894006049100060488C0041509
:2005C8009080051788800515003F6806900B883A8809883A10210BC0003FD40690C00417E8
:2005D00091000604BA000804B8C0061590800517B8800715003F120690C00417910006043A
:2005D800BA000804B8C0061590800517B8800715003F320690C0041791000604B9C0080428
:2005E000B8C0061590800517B8800715003FB906DEFFFD04DC000015040000348406E50470
:2005E800DC400115800000152023883A2809883ADFC0021510233E801007883A00BFFFC432
:2005F000188006261805883ADFC00217DC400117DC000017DEC00304F800283A8080001753
:2005F800103FF826888000151805883ADFC00217DC400117DC000017DEC00304F800283A9C
:20060000008000341086D00410C00017DEFFFD04DC400115DC000015DFC002152023883A19
:200608002821883A1800022618800E1710001F268100030B2080020C1000282681400417FE
:2006100028001D262080004C1005003A10000B262080008C100012260005883A8080021591
:2006180028000B260005883ADFC00217DC400117DC000017DEC00304F800283A80800517A8
:20062000800002150085C83A80800615283FF51E2080200C103FF32600BFFFC4003FF2061A
:200628008080051780800215003FED061809883A1021BD40003FDE0620C0A00C0080800489
:2006300018BFE0268809883A800B883A10223EC08100030B81400417003FDA062080040CC3
:20063800103FED262080010C1000122681400C172800052680801004288002268809883ADD
:200640001021F58080000C158080030B814004178000011510BFF6CC8080030D814000155C
:200648008080030B10800214113FFFCC8080030D003FC30681400417003FF906DEFFFB04B5
:20065000DCC00315DC800215DFC00415DC400115DC0000152027883A2825883A2000022628
:2006580020800E17100056269100030B20FFFFCC18E0001C18E000041880020C1000261E9E
:2006600090C00117208200149080030D1009883A00C0400E92000A17400040262084000C4A
:2006680010005326940014179080030B1080010C1000481E914007179809883A800D883A58
:20067000000F883A403EE83A8080261E9080030B910004179000011510BDFFCC10FFFFCCD3
:2006780018C4000C9080030D9100001518002B260007883A1805883A94001415DFC004172C
:20068000DCC00317DC800217DC400117DC000017DEC00504F800283A9440041788001F264B
:200688009080001718C000CC944000151461C83A180025260005883A908002150400170EAD
:2006900090C0091791400717880D883A800F883A9809883A183EE83A88A3883A80A1C83A58
:2006980000BFF6169080030B00FFFFC4108010149080030D1805883ADFC00417DCC0031774
:2006A000DC800217DC400117DC000017DEC00504F800283A90800F1700BFBE160007883A0B
:2006A8001805883ADFC00417DCC00317DC800217DC400117DC000017DEC00504F800283A46
:2006B0001021BD40003FA8069080051790800215003FDA069080011790C00C1780A1C83ADF
:2006B800183FB42690800F1780A1C83A003FB106914007179809883A000D883A01C000447C
:2006C000403EE83A1021883A00BFFFC48080022692000A17003FA40698C000170080074407
:2006C80018BFDE269080030B8007883A108010149080030D003FCF06015040B429464F04E1
:2006D0002007883A20000526008000341086D00411000017180B883A102193C10080003472
:2006D8001086D10411000017102226C1009040B41089860420800B15009040B41089C1040D
:2006E0002080081500D040B418C9A204009040B4108988042140030D2180038D20C00915A9
:2006E80020800A1520000015200001152000021520000415200005152000061521000715A6
:2006F000F800283AF800283AF800283AF800283AF800283A20800E17DEFFFD04DC40011553
:2006F800DC000015DFC002150440004401400104000D883A2021883A2200BB04200F883AC9
:2007000010000526DFC00217DC400117DC000017DEC00304F800283A21000117009040B403
:2007080010872E0400C000C480800F1580C0B9158200BA1584400E158000B8151021B6C026
:2007100081000217880D883A800F883A014002841021B6C081000317800F883A0140048464
:2007180001800084DFC00217DC400117DC000017DEC003041021B6C10005883AF800283A6F
:200720000005883AF800283A008000341086D00411000017015040B42947200410223341D3
:20072800008000341086D00411000017015040B429471E0410223341015040B4294A5704DB
:2007300010223341008000341086D104110000171021CB81DEFFFC04DC4001152C40172489
:20073800DC8002152825883A89400304DC000015DFC0031510207F800021883A880D883A3E
:20074000000B883A10000626110003041480011510000015110002151021883A1022580004
:200748008005883ADFC00317DC800217DC400117DC000017DEC00404F800283ADEFFFD0417
:20075000008000341086D104DC00001514000017DC400115DFC0021580800E172023883A3C
:20075800100026268400B804808001178100021710FFFFC4180009162080030F10000B2637
:20076000017FFFC4000002062080030F1000072618FFFFC421001704197FFB1E8080001761
:20076800100019261021883A003FEF0600BFFFC400C000442080038D20C0030D2000001520
:20077000200002152000011520000415200005152000061520000C1520000D152000111585
:20077800200012152005883ADFC00217DC400117DC000017DEC00304F800283A8009883A0A
:200780001021BD40003FD7068809883A014001041021CD4080800015103FE21E008003044D
:200788000009883A88800015003FEE06DEFFFB04DCC0031504C000349CC11504DC800215C5
:20079000DC400115DC0000152823883A2025883ADFC0041510231C80988002179009883AFF
:20079800000B883A10C0011700BFFF0418A0703A8463C83A8C43FBC48822D33A0083FFC4F4
:2007A0008C7FFFC48822933A1440060E1021790098C002179009883A044BC83A80C7883ABC
:2007A80010C0092610231E800005883ADFC00417DCC00317DC800217DC400117DC0000178E
:2007B000DEC00504F800283A9009883A10217900844DC83A00FFFFC49009883A000B883A66
:2007B80001C0003439C6EC043180005410C009263880001798C002179009883A1445C83A43
:2007C000388000151980011510231E8000800044003FE6061021790099800217100F883A20
:2007C8009009883A1187C83A008003C41940005410FFDC0E008000341086D30410C0001727
:2007D000008000341086EC043140011538C7C83A10C00015003FD306DEFFFD04DC4001153A
:2007D800DC000015DFC002152821883A2023883A28005A2610231C80823FFE044140011777
:2007E00000BFFF840280003452811504288E703A41CD883A30C001175100021700BFFF04B1
:2007E8001892703A5017883A310067262880004C1005003A3240011510001A1E000B883AD6
:2007F0003247883A188001171080004C1000231E280AC03A3A4F883A2800451E3100021785
:2007F800008000341081170420807B26308003173A07883A19C000151100021520800315A5
:20080000388000544080011528001A268809883ADFC00217DC400117DC000017DEC00304B7
:2008080010231E8180BFFE1750C002044091C83A41000217388F883A20C06126408003179D
:200810003247883A000B883A1100021520800315188001171080004C103FDD2638800054F6
:200818003A07883A280AC03A4080011519C00015283FE61E00807FC411C01F2E3806D27AF7
:200820001800481E3804D0FA100690FA1ACD883A31400217314059262880011700FFFF04AF
:2008280010C4703A3880022E29400217317FFA1E2980031741800315414002158809883A79
:200830002A00031532000215DFC00217DC400117DC000017DEC0030410231E81DFC002170F
:20083800DC400117DC000017DEC00304F800283A31000217003FBD063806D0FA0080004462
:2008400051400117180890FA1807D0BA22C9883A2180021710C4983A41000315418002155E
:20084800288AB03A220002158809883A5140011532000315DFC00217DC400117DC00001798
:20085000DEC0030410231E812880004C3A4D883A1000071E80BFFE174091C83A410003171D
:2008580040C00217308D883A20C0021519000315008000341086D2041100001730C0005434
:200860005200021540C00115313FA036008000341086E204114000178809883A1021E2C0F5
:20086800003F9A060080010410C0072E0080050410C01936188016C4100690FA003FB30655
:2008700001400044003F7E063804D1BA10800E04100690FA003FAD062200031522000215B2
:200878003A05883A38C0005411C000154100021540C0011541000315003F84061005D0BAFE
:2008800000C00044510001171886983A20C8B03A51000115003FA7060080150410C00436B3
:200888003804D33A10801B84100690FA003F97060080550410C004363804D3FA10801DC4FF
:20089000100690FA003F91060081550410C0032E00801F8400C0FC04003F8C063804D4BA79
:2008980010801F04100690FA003F8806DEFFF704DCC0031524C0B804DD800615DD40051545
:2008A000DFC00815DDC00715DD000415DC800215DC400115DC000015202B883A282D883A13
:2008A8001021BC4098002126002F883A9C8001179C00021790BFFFC410000D160023883A20
:2008B000053FFFC48080030F8C400044100006268080038F800B883AA809883A1500022634
:2008B800B03EE83AB8AEB03A84001704947FF51E9CC00017983FED1E1021BC80B805883ABA
:2008C000DFC00817DDC00717DD800617DD400517DD000417DCC00317DC800217DC40011795
:2008C800DC000017DEC00904F800283A002F883A003FF106DEFFF804DCC0031524C0B804C4
:2008D000DD400515DFC00715DD800615DD000415DC800215DC400115DC000015282B883AFD
:2008D8001021BC4098001F26002D883A9C8001179C00021790BFFFC410000C160023883AF5
:2008E000053FFFC48080030F8C400044100005268080038F8009883A15000226A83EE83A72
:2008E800B0ACB03A84001704947FF61E9CC00017983FEE1E1021BC80B005883ADFC00717ED
:2008F000DD800617DD400517DD000417DCC00317DC800217DC400117DC000017DEC0080441
:2008F800F800283A002D883A003FF2062880030BDEFFED04DC4010151080008CDC000F157F
:20090000DFC01215DC8011152821883A2023883A10000B2628C010C40080004428800515FC
:2009080028C0041528C00015DFC01217DC801117DC401017DC000F17DEC01304F800283A31
:200910002940038F28002116D80D883A1022970010001E16D880011700E00014113C000CFC
:2009180020C031268080030B00C80004108200148080030D20C01E26048100048809883AF8
:20092000900B883A10207F801009883A1000312680C0030B009040B410872E0488800F1522
:2009280018C020148480051580C0030D8100041581000015DFC01217DC801117DC40101776
:20093000DC000F17DEC01304F800283A80C0030B1880200C10000426048010041882001404
:200938008080030D003FE50604810004003FFB068140038F8809883A10229E40103FDE2693
:200940008080030B80C010C404810004108000548080030D0080004480C0041580800515C1
:2009480080C00015003FD50680C00A17009040B41089880418BFCB1E8080030B00C1000483
:200950001825883A10C4B03A8080030D80C01315003FCA068100030B2080800C103FB21E69
:2009580080C010C42100009400800044808005158100030D80C0041580C00015003FAA06AA
:20096000008000C429403FCC2007883A1180022E2084703A10000826300005262805883A3F
:2009680030CD883A1880000518C0004419BFFD1E2005883AF800283A2804923A020003C402
:20097000200F883A2884B03A1006943A10C6B03A41800A2E4005883A31BFFC0438C000153F
:2009780038C0011538C0021538C0031539C0040411BFF936008000C41180052E31BFFF0437
:20098000008000C438C0001539C0010411BFFB363807883A003FE0062940038F10227DC176
:20098800DEFFFE04DC0000152821883A2940038FDFC001151022A5401007883A00BFFFC452
:20099000188009268080030B80C01415108400148080030D1805883ADFC00117DC000017C8
:20099800DEC00204F800283A8080030B10BBFFCC8080030D1805883ADFC00117DC00001704
:2009A000DEC00204F800283A2880030BDEFFFB04DCC003151080400CDC800215DC40011572
:2009A800DC0000153027883A3825883ADFC004152821883A000D883A01C000842023883A2A
:2009B000100002262940038F1022A5408080030B8140038F8809883A10BBFFCC980D883A2C
:2009B800900F883A8080030DDFC00417DCC00317DC800217DC400117DC000017DEC00504FB
:2009C00010227641DEFFFE04DC0000152821883A2940038FDFC001151022ACC01007883A2C
:2009C800100008168080141710C5883A808014151805883ADFC00117DC000017DEC00204C9
:2009D000F800283A8080030B10BBFFCC8080030D1805883ADFC00117DC000017DEC00204CC
:2009D800F800283ADEFFFD04DC000015040000348406E504DC400115800000152023883A5F
:2009E0002809883A300B883A380D883ADFC0021510234A401007883A00BFFFC4188006266E
:2009E8001805883ADFC00217DC400117DC000017DEC00304F800283A80800017103FF826AE
:2009F000888000151805883ADFC00217DC400117DC000017DEC00304F800283ADEFFFD042F
:2009F800DC000015040000348406E504DC400115800000152023883A2809883ADFC00215CE
:200A00001022B4401007883A00BFFFC4188006261805883ADFC00217DC400117DC000017D3
:200A0800DEC00304F800283A80800017103FF826888000151805883ADFC00217DC40011763
:200A1000DC000017DEC00304F800283ADEFFFC04DC400115DC000015DFC00315DC800215AA
:200A18002821883A2023883A280029261021BC408800022688800E1710002D268080030FB8
:200A2000100022268809883A800B883A102193C01025883A80800B17100004268140071708
:200A28008809883A103EE83A10002A168080030B1080200C1000231E81400C172800052649
:200A300080801004288002268809883A1021F58080000C1581401117280003268809883A9B
:200A38001021F580800011158000030D1021BC809005883ADFC00317DC800217DC4001179C
:200A4000DC000017DEC00404F800283A1021BC800025883A9005883ADFC00317DC800217CA
:200A4800DC400117DC000017DEC00404F800283A8809883A1021BD408080030F103FD11E96
:200A5000003FF206814004178809883A1021F580003FD90604BFFFC4003FD4060080003409
:200A58001086D004200B883A11000017102284C1DEFFFD04DC000015040000348406E5040E
:200A6000DC400115800000152023883A2809883A300B883ADFC002151022CCC01007883A6D
:200A680000BFFFC4188006261805883ADFC00217DC400117DC000017DEC00304F800283A6B
:200A700080800017103FF826888000151805883ADFC00217DC400117DC000017DEC0030462
:200A7800F800283ADEFFFD04DC000015040000348406E504DC400115800000152023883ABE
:200A80002809883ADFC002151022E0001007883A00BFFFC4188006261805883ADFC00217E5
:200A8800DC400117DC000017DEC00304F800283A80800017103FF826888000151805883AA8
:200A9000DFC00217DC400117DC000017DEC00304F800283ADEFFFD04DC0000150400003461
:200A98008406E504DC400115800000152023883A2809883A300B883A380D883ADFC0021552
:200AA000102300C01007883A00BFFFC4188006261805883ADFC00217DC400117DC00001766
:200AA800DEC00304F800283A80800017103FF826888000151805883ADFC00217DC400117C3
:200AB000DC000017DEC00304F800283ADEFFFD04DC000015040000348406E504DC40011588
:200AB800800000152023883A2809883A300B883A380D883ADFC00215102320801007883A2B
:200AC00000BFFFC4188006261805883ADFC00217DC400117DC000017DEC00304F800283A13
:200AC80080800017103FF826888000151805883ADFC00217DC400117DC000017DEC003040A
:200AD000F800283ADEFFF804DFC00715DF000615DF000604E13FFC15E0BFFC171004803A84
:200AD8001000081EE0BFFC17108003241007883A00800034108221041887883AE0FFFF15C7
:200AE00000000106E03FFF15E0BFFF17E0BFFB15E0BFFB171005003A10001D1EE0BFFB175C
:200AE80010800017108004171005003A1000071EE0BFFB171080001710800417E13FFB17E3
:200AF000103EE83AE0BFFE1500000106E03FFE15E0BFFE17E0BFFA15E13FFC17102338800B
:200AF800E0BFFA171004403A1000071E1022C400E0FFFA1700C7C83A10C0001500BFFFC455
:200B0000E0BFFD1500000806E03FFD15000006061022C4001007883A008014441880001585
:200B080000BFFFC4E0BFFD15E0BFFD17E037883ADFC00117DF000017DEC00204F800283A63
:200B1000DEFFFD04DFC00215DF000115DF000104008000341086D904108000171005003A3B
:200B18001000061E008000341086D90410800017103EE83AE0BFFF150000030600800034DB
:200B20001086E504E0BFFF15E0BFFF17E037883ADFC00117DF000017DEC00204F800283A4A
:200B2800DEFFFC04DF000315DF000304E13FFD15E17FFE15E1BFFF15E0BFFF17E037883A0C
:200B3000DF000017DEC00104F800283ADEFFF904DFC00615DF000515DF000504E13FFC150C
:200B3800E17FFD15E0BFFC171004803A1000081EE0BFFC17108003241007883A008000347F
:200B4000108221041887883AE0FFFF1500000106E03FFF15E0BFFF17E0BFFB15E0BFFB173B
:200B48001005003A1000121EE0BFFB1710800017108008171005003A1000081EE0BFFB17C1
:200B50001080001710800817E13FFB17E17FFD17103EE83AE0BFFE1500000B06E0FFFD1763
:200B58000088000418800115E03FFE15000006061022DA001007883A00801444188000159B
:200B600000BFFFC4E0BFFE15E0BFFE17E037883ADFC00117DF000017DEC00204F800283A09
:200B6800DEFFFD04DFC00215DF000115DF000104008000341086D904108000171005003AE3
:200B70001000061E008000341086D90410800017103EE83AE0BFFF15000003060080003483
:200B78001086E504E0BFFF15E0BFFF17E037883ADFC00117DF000017DEC00204F800283AF2
:200B8000DEFFEB04DFC01415DF001315DF001304E13FFD15E0BFFD171004803A1000081EDB
:200B8800E0BFFD17108003241007883A00800034108221041887883AE0FFFF150000010644
:200B9000E03FFF15E0BFFF17E0BFED15E0BFED171005003A10000F1EE0BFED171080001743
:200B9800108008171004C03A1000031E00800044E0BFFE1500000C06E17FEE04E13FFD1741
:200BA0001022CCC0E0BFEF1710880020E0BFFE15000005061022EC001007883A008014448E
:200BA80018800015E03FFE15E0BFFE17E037883ADFC00117DF000017DEC00204F800283A16
:200BB000DEFFFD04DFC00215DF000115DF000104008000341086D904108000171005003A9B
:200BB8001000061E008000341086D90410800017103EE83AE0BFFF1500000306008000343B
:200BC0001086E504E0BFFF15E0BFFF17E037883ADFC00117DF000017DEC00204F800283AAA
:200BC800DEFFFE04DFC00115DF000015D839883A011040B421191A0401400034294015045E
:200BD000018000343186E2041022FA00011040B421000804015040B429400804019040B416
:200BD80031806D041022FA00011040B4211905040140003429400004018000343180150406
:200BE0001022FA0010250BC010254E00E037883ADFC00117DF000017DEC00204F800283AC2
:200BE800DEFFFC04DF000315DF000304E13FFD15E17FFE15E1BFFF15E0FFFE17E0BFFD1733
:200BF00018800E2600000A06E0BFFD1710C00017E0BFFE1710C00015E0BFFE17108001048D
:200BF800E0BFFE15E0BFFD1710800104E0BFFD15E0FFFE17E0BFFF1718BFF31EE037883AC8
:200C0000DF000017DEC00104F800283ADEFFF804DFC00715DF000615DF000604E13FFC1539
:200C0800E17FFD15E1BFFE15E03FFA15E0BFFC171004803A1000081EE0BFFC17108003245A
:200C10001007883A00800034108221041887883AE0FFFF1500000106E03FFF15E0BFFF173D
:200C1800E0BFFB15E0BFFB171005003A1000111EE0BFFB1710800017108007171005003A79
:200C20001000091EE0BFFB171080001710800717E13FFB17E17FFD17E1BFFE17103EE83AAC
:200C2800E0BFFA150000050600BFDE84E0BFFA150000020600BFEBC4E0BFFA15E0BFFA1750
:200C30001004403A1000071E10230FC01007883AE0BFFA170085C83A1880001500BFFFC4A0
:200C3800E0BFFA15E0BFFA17E037883ADFC00117DF000017DEC00204F800283ADEFFFD04DC
:200C4000DFC00215DF000115DF000104008000341086D904108000171005003A1000061EB4
:200C4800008000341086D90410800017103EE83AE0BFFF1500000306008000341086E5045F
:200C5000E0BFFF15E0BFFF17E037883ADFC00117DF000017DEC00204F800283ADEFFFD04BA
:200C5800DFC00215DF000115DF0001040009883A10236240102365800100003421000A04D1
:200C60000140003429400A040180003431800A0410258A0010253840011040B42114FA0470
:200C680010260080D1201617D1601717D1A0181710202000E0BFFF15010000441022B4402B
:200C7000E13FFF17102601C0DEFFFE04DF000115DF000104E13FFF15E037883ADF0000177C
:200C7800DEC00104F800283ADEFFFE04DF000115DF000104E13FFF15E037883ADF000017A4
:200C8000DEC00104F800283ADEFFF704DFC00815DF000715DF000704E13FFB15E17FFC153D
:200C8800E1BFFD15E0BFFB171004803A1000081EE0BFFB17108003241007883A00800034F0
:200C9000108221041887883AE0FFFF1500000106E03FFF15E0BFFF17E0BFFA15E0BFFA17EC
:200C98001005003A1000241EE0BFFA1710800217108000CC1080006010001A1EE0BFFA17FE
:200CA00010800017108005171005003A1000151EE0BFFA171080001710800517E17FFC17D9
:200CA800E1BFFD17E13FFA17103EE83AE0BFF915E0BFF9171004403A1000071E10233280D3
:200CB000E0FFF91700C7C83A10C0001500BFFFC4E0BFFE1500000E06E0BFF917E0BFFE15DE
:200CB80000000B06102332801007883A008003441880001500000406102332801007883A11
:200CC000008014441880001500BFFFC4E0BFFE15E0BFFE17E037883ADFC00117DF00001721
:200CC800DEC00204F800283ADEFFFD04DFC00215DF000115DF000104008000341086D9047A
:200CD000108000171005003A1000061E008000341086D90410800017103EE83AE0BFFF15E9
:200CD80000000306008000341086E504E0BFFF15E0BFFF17E037883ADFC00117DF000017D2
:200CE000DEC00204F800283ADEFFFE04DF000115DF000104E13FFF15E0BFFF17108000D0F5
:200CE80010000D1EE0BFFF1700C0003418C221041080032410C5883A108002041000001500
:200CF000E0BFFF1700C0003418C221041080032410C5883A10000015E037883ADF000017FA
:200CF800DEC00104F800283ADEFFF804DF000715DF000704E13FFE150005303AE0BFFB15D0
:200D0000E0FFFB1700BFFF841884703A1001703AE0BFFB17E0BFFD15D0A00A1710C000C418
:200D080000BFFF041884703AD0A00A15D0E00A17E0BFFE171887883A0090003410800004F6
:200D100010C0072EE0BFFD17E0BFFA15E0BFFA171001703A00BFFFC4E0BFFF1500000C06AB
:200D1800D0A00A17E0BFFC15D0E00A17E0BFFE171885883AD0A00A15E0BFFD17E0BFF915A7
:200D2000E0BFF9171001703AE0BFFC17E0BFFF15E0BFFF17E037883ADF000017DEC00104BD
:200D2800F800283ADEFFF704DFC00815DF000715DF000704E13FFB15E17FFC15E1BFFD1585
:200D3000E0BFFB171004803A1000081EE0BFFB17108003241007883A008000341082210442
:200D38001887883AE0FFFF1500000106E03FFF15E0BFFF17E0BFFA15E0BFFA171005003AAB
:200D40001000241EE0BFFA1710800217108000CC1005003A10001A1EE0BFFA17108000179E
:200D4800108006171005003A1000151EE0BFFA171080001710800617E17FFC17E1BFFD1721
:200D5000E13FFA17103EE83AE0BFF915E0BFF9171004403A1000071E10235C40E0FFF91705
:200D580000C7C83A10C0001500BFFFC4E0BFFE1500000E06E0BFF917E0BFFE1500000B0613
:200D600010235C401007883A00800344188000150000040610235C401007883A00801444CD
:200D68001880001500BFFFC4E0BFFE15E0BFFE17E037883ADFC00117DF000017DEC00204AC
:200D7000F800283ADEFFFD04DFC00215DF000115DF000104008000341086D90410800017CE
:200D78001005003A1000061E008000341086D90410800017103EE83AE0BFFF1500000306DE
:200D8000008000341086E504E0BFFF15E0BFFF17E037883ADFC00117DF000017DEC002048E
:200D8800F800283ADEFFFD04DFC00215DF000115DF000104E13FFF151025D800008000447F
:200D90001001703AE037883ADFC00117DF000017DEC00204F800283ADEFFFD04DFC0021570
:200D9800DF000115DF00010401100034000B883A0180004401C0FA041024ED800080008427
:200DA000D8800015010000342102AA04014000342942B1040190413431840004000F883A9B
:200DA800102429C0010000342102C204000B883A000D883A10245040010000342102B8047C
:200DB00010236D80E037883ADFC00117DF000017DEC00204F800283ADEFFFD04DFC00215EB
:200DB800DF000115DF000104E13FFF15E13FFF17014000342946D60410251000E037883AFC
:200DC000DFC00117DF000017DEC00204F800283ADEFFF904DF000615DF000604E13FFC157A
:200DC800E0BFFC1710C00117E0BFFC171080021718803926E0BFFC1710C00317E0BFFC17D1
:200DD0001080041718803426E0FFFC170080004418800815E0BFFC1710C00904E0BFFC17BA
:200DD800108001171004913A1885883AE0BFFB15E0BFFC1710C01904E0BFFC17108003176B
:200DE0001004913A1885883AE0BFFA15E0BFFC171080001711000104E0BFFB171080001740
:200DE8001007883A2005883A10C00035E0BFFC171080001711000204E0BFFA17108000175F
:200DF0001007883A2005883A10C00035E0BFFC171080001710800304E0BFFF15E0BFFB17CA
:200DF80010C00117E0BFFA1710800117E0BFFE15E0FFFD15E0BFFE17E0FFFD1710C0022E51
:200E0000E0BFFE17E0BFFD15E0FFFD17E0BFFF1710C0003500000206E0BFFC1710000815D9
:200E0800E037883ADF000017DEC00104F800283ADEFFFD04DF000215DF000204E13FFF1511
:200E1000E0BFFF1710C00117E0BFFF171080021718801B26E0FFFF17008000441880081580
:200E1800E0BFFF1710C00904E0BFFF17108001171004913A1885883AE0BFFE15E0BFFF1726
:200E20001080001711000104E0BFFE17108000171007883A2005883A10C00035E0BFFF1720
:200E28001080001711000304E0BFFE17108001171007883A2005883A10C0003500000206C2
:200E3000E0BFFF1710000815E037883ADF000017DEC00104F800283ADEFFFD04DF00021520
:200E3800DF000204E13FFF15E0BFFF1710C00317E0BFFF171080041718801B26E0FFFF17B4
:200E40000080004418800815E0BFFF1710C01904E0BFFF17108003171004913A1885883ADA
:200E4800E0BFFE15E0BFFF171080001711000204E0BFFE17108000171007883A2005883A4A
:200E500010C00035E0BFFF171080001711000304E0BFFE17108001171007883A2005883AED
:200E580010C0003500000206E0BFFF1710000815E037883ADF000017DEC00104F800283ABF
:200E6000DEFFF804DF000715DF000704E13FFB15E17FFC15E1BFFD15E03FFA15E0BFFB1782
:200E680010C00117E0BFFB171080021718800B1EE0BFFB1710C00317E0BFFB171080041770
:200E70001880061EE0BFFB171080001710800304108000371005003A1000031E00BFFEC4EF
:200E7800E0BFFF150000CA06E0BFFC17108002A810007D1EE0BFFC171085883A1087883ADE
:200E8000009040B4108E85041885883A108000171000683A41023BE841023A3C41023A98BB
:200E880041023AC441023B2041023B4C41023B6841023B8841023BA841023BC8E0BFFB1798
:200E9000108005171080100C1004C03A10000F1EE0BFFB171080001710800104E0FFFD17BF
:200E980010C00035E0BFFB171080051710C00814E0BFFB1710C00515E0FFFB17009040B4DC
:200EA000108E3604188007150000590600BFFEC4E0BFFA1500005606E0BFFB1710C005171F
:200EA80000BFF7C41886703AE0BFFB1710C00515E0FFFB17009040B4108DC404188007153F
:200EB00000004B06E0BFFB17108005171080080C1004C03A10000F1EE0BFFB17108000172D
:200EB80010800204E0FFFD1710C00035E0BFFB171080051710C01014E0BFFB1710C00515A0
:200EC000E0FFFB17009040B4108E0C04188007150000370600BFFEC4E0BFFA150000340695
:200EC800E0BFFB1710C0051700BFEFC41886703AE0BFFB1710C00515E0FFFB17009040B4A3
:200ED000108DC4041880071500002906E0BFFB1710C0051700BFFC041886703AE0BFFB1765
:200ED80010C0051500002206E0BFFB1710C0051700BFFC041884703A10C00054E0BFFB1771
:200EE00010C0051500001A06E0BFFB1710C0051700BFFC041884703A10C000D4E0BFFB17F1
:200EE80010C0051500001206E0BFFB1710C0051700BFFC041884703A10C001D4E0BFFB17F0
:200EF00010C0051500000A06E0BFFB1710C0051700BFFC041884703A10C003D4E0BFFB17EE
:200EF80010C005150000020600BFF9C4E0BFFA15E0BFFA171004C03A1000431EE0BFFB17DE
:200F000010800517108003CCE0BFFE15E0FFFE171880006010000D1EE0FFFE1718800070F1
:200F08001000071EE0FFFE17188000E010000A1EE0FFFE17188001E010000A1E00000C0639
:200F100000800044E0BFF91500000B0600800084E0BFF9150000080600800104E0BFF9154E
:200F18000000050600810004E0BFF9150000020600820004E0BFF915E0BFFB1710800517E4
:200F20001080080C1005003A1000091EE0BFFB171080001711000604E0BFF91710807E1443
:200F28001007883A2005883A10C0003500001606E0BFFB17108005171080100C1005003A70
:200F30001000091EE0BFFB171080001711000604E0BFF9171080BE141007883A2005883A26
:200F380010C0003500000806E0BFFB171080001711000604E0BFF91710803E141007883AA9
:200F40002005883A10C00035E0BFFA17E0BFFF15E0BFFF17E037883ADF000017DEC001041B
:200F4800F800283ADEFFFB04DFC00415DF000315DF000304E13FFD15E17FFE15E1BFFF1565
:200F5000E0BFFD1711000617E17FFE17E1BFFF1710239800E037883ADFC00117DF00001724
:200F5800DEC00204F800283ADEFFFB04DFC00415DF000315DF000304E13FFD15E17FFE1565
:200F6000E1BFFF15E0BFFD1711000617E17FFE17E1BFFF1710239800E037883ADFC0011756
:200F6800DF000017DEC00204F800283ADEFFF304DFC00C15DF000B15DF000B04E13FFB15C4
:200F7000E17FFC15E1BFFD15E1FFFE15E0BFFB1710800617E0BFF515E0BFF51710800517ED
:200F7800108003CCE0BFF615E0BFFC171007883AE0BFF6171884703A1004C03A1000091E8E
:200F8000E0FFFD17E0BFF6171884703A1004C03A1000041EE0BFF51710C00617E0BFFD17E1
:200F88001880032E00BFFA84E0BFFF1500002E06E0BFF51710800317E0BFF915E0BFF517AF
:200F900010800417E0BFF815E0BFF51710C01904E0BFF8171004913A1885883AE0BFFA15B8
:200F9800E0BFF81710800044108000CCE0BFF715E0FFF717E0BFF9171880031E00BFF9049F
:200FA000E0BFFF1500001806E0FFFA17E0BFFC1718800015E0FFFA17E0BFFD1718800115C0
:200FA800E0FFFA17E0BFFE1718800215E0FFFA17E080021718800315E0FFF517E0BFF71725
:200FB00018800415E0BFF517108008171004C03A1000041EE0BFF51710800717E13FF51751
:200FB800103EE83AE03FFF15E0BFFF17E037883ADFC00117DF000017DEC00204F800283A3D
:200FC000DEFFFA04DF000515DF000504E13FFE15E0BFFE1710800617E0BFFD15E0BFFD175D
:200FC80010800117E0BFFC15E0BFFD1710800217E0BFFB15E0FFFC17E0BFFB1710C0062EFF
:200FD000E0FFFC17E0BFFB171885C83A10BFFFC4E0BFFF1500000506E0FFFC17E0BFFB17CC
:200FD8001885C83A108000C4E0BFFF15E0BFFF17E037883ADF000017DEC00104F800283AD2
:200FE000DEFFF304DFC00C15DF000B15DF000B04E13FFB15E17FFC15E1BFFD15E1FFFE152A
:200FE800E0BFFB1710800617E0BFF515E0BFF51710800517108003CCE0BFF715E0BFFC17CF
:200FF0001007883AE0BFF7171884703A1004C03A1000091EE0FFFD17E0BFF7171884703AEA
:200FF8001004C03A1000041EE0BFF51710C00617E0BFFD171880032E00BFFA84E0BFFF1595
:2010000000002E06E0BFF51710800117E0BFF915E0BFF51710800217E0BFF815E0BFF517F1
:2010080010C00904E0BFF8171004913A1885883AE0BFFA15E0BFF81710800044108000CC73
:20101000E0BFF615E0FFF617E0BFF9171880031E00BFF904E0BFFF1500001806E0FFFA1745
:20101800E0BFFC1718800015E0FFFA17E0BFFD1718800115E0FFFA17E0BFFE1718800215B5
:20102000E0FFFA17E080021718800315E0FFF517E0BFF61718800215E0BFF51710800817F7
:201028001004C03A1000041EE0BFF51710800717E13FF517103EE83AE03FFF15E0BFFF178B
:20103000E037883ADFC00117DF000017DEC00204F800283ADEFFF104DFC00E15DF000D1587
:20103800DF000D04E13FFF15E0BFFF17E0BFFE15E0BFFE17108005171080080CE0BFF9155C
:20104000E0BFFE17108005171080100CE0BFF815E0BFFE1710800117E0BFFB15E0BFFE1719
:2010480010800317E0BFFA15E0BFFE1710C00904E0BFFB171004913A1885883AE0BFFD15FF
:20105000E0BFFE1710C01904E0BFFA171004913A1885883AE0BFFC15E0BFF9171004C03A84
:201058001000051EE0BFFB171080004410C000CCE0BFFE1710C00115E0BFF8171004C03ACE
:201060001000051EE0BFFA171080004410C000CCE0BFFE1710C00315E0BFFE171080001726
:2010680010000035E0BFFE171080001710800037E0BFFE1710800717E13FFE17103EE83AFA
:20107000E0BFF9171004C03A1000151EE0BFFD17108002171005003A1000111E0005303A07
:20107800E0BFF615E0FFF61700BFFF841884703A1001703AE0BFF617E0BFF715E0BFFD1775
:2010800010C00217E0BFFD1711000317183EE83AE0BFF717E0BFF515E0BFF5171001703A55
:20108800E0BFF8171004C03A1000171EE0BFFC17108002171005003A1000131E0005303AED
:20109000E0BFF415E0FFF41700BFFF841884703A1001703AE0BFF417E0BFF715E0BFFC1764
:2010980010C00217E0BFFC1711000317E0BFFC1711400017183EE83AE0BFF717E0BFF3158C
:2010A000E0BFF3171001703AE037883ADFC00117DF000017DEC00204F800283ADEFFF9046E
:2010A800DFC00615DF000515DF000504E13FFC15E17FFD15E1BFFE15E1FFFF15E0BFFE178F
:2010B000108006041007883A0084000418800035E0BFFE17108006041007883A00840004A9
:2010B80018800035E0BFFE17108006041007883A00803F0418800035E0BFFE17100000359B
:2010C000E0BFFC1711C00617D8000015E13FFF17E1400217019040B431903504102551000E
:2010C8001004803A1000041EE13FFC17102434C0E13FFD1710243840E037883ADFC001173D
:2010D000DF000017DEC00204F800283ADEFFFD04DFC00215DF000115DF000104E13FFF156B
:2010D800E13FFF17014000342946DD0410251000E037883ADFC00117DF000017DEC002048E
:2010E000F800283ADEFFFD04DFC00215DF000115DF000104E13FFF15E13FFF17014000344A
:2010E8002946DB0410251000E037883ADFC00117DF000017DEC00204F800283ADEFFFA04F6
:2010F000DFC00515DF000415DF000404E13FFD15E17FFE15E1BFFF15E0BFFD171080001795
:2010F800E0BFFC15E0BFFC1711000A04E0BFFD1711C00217E17FFE17E1BFFF171024A0407B
:20110000E037883ADFC00117DF000017DEC00204F800283ADEFFFA04DFC00515DF000415BF
:20110800DF000404E13FFD15E17FFE15E1BFFF15E0BFFD1710800017E0BFFC15E0BFFC17CB
:2011100011000A04E0BFFD1711C00217E17FFE17E1BFFF171024C280E037883ADFC00117D2
:20111800DF000017DEC00204F800283ADEFFFC04DFC00315DF000215DF000204E13FFF1520
:20112000E0BFFF1710800017E0BFFE15E0BFFE1711000A04E0BFFF1711400217102489C032
:20112800E037883ADFC00117DF000017DEC00204F800283ADEFFFA04DFC00515DF00041597
:20113000DF000404E13FFD15E17FFE15E1BFFF15E0BFFD1710800017E0BFFC15E0BFFC17A3
:2011380011000A04E17FFE17E1BFFF1710249100E037883ADFC00117DF000017DEC002045E
:20114000F800283ADEFFFA04DFC00515DF000415DF000404E13FFD15E17FFE15E1BFFF1569
:20114800E0FFFD170080004418800815E0BFFD171080001711000104E0BFFD171080081749
:201150001007883A2005883A10C00035E13FFE17E17FFF17D8000015019040B43191710466
:20115800E1FFFD1710255100E0BFFD1710000915E0BFFD1711000204008000341086EA041A
:2011600010800017100B883A019040B43191FB04E1FFFD171024F6801004403A1000041E47
:20116800E0FFFD1700A0003410BFFFC418800115E037883ADFC00117DF000017DEC0020436
:20117000F800283ADEFFF804DF000715DF000704E13FFF15E0BFFF17E0BFFE15E0BFFE17F8
:2011780010800017E0BFFD1500000006E0BFFD171080010410800037E0BFFC15E0BFFC1788
:201180001080C00C1005003A1000741EE0BFFC171080400C1005003A1000351E00800074CE
:20118800E0BFFB15E0BFFE1710800A17108000441081FFCCE0BFFA15E0BFFE1710C00B17AF
:20119000E0BFFA1718801626E0BFFD1710800037E0BFFB15E0BFFB1710A0000C1005003AD6
:2011980010000F1EE0BFFE1710C00A17E0BFFB171009883AE0BFFE171885883A10800E0414
:2011A00011000005E0BFFE1710800A171080004410C1FFCCE0BFFE1710C00A15003FE1067B
:2011A800E0BFFB1710BFFFEC1005003A1000101EE0BFFE1710C0081700BFFF841886703A02
:2011B000E0BFFE1710C00815E0BFFD1711000104E0BFFE17108008171007883A2005883A92
:2011B80010C00035E0BFFD171080010410800037E0BFFC171080800C1005003A103FBB1EBE
:2011C000E0BFFC1710BFFFEC1004D43AE0BFF91500001506E13FFD17E0BFFE1710C00D17DD
:2011C800E0BFFE171885883A10820E041080000310C03FCC18C0201C18FFE0042005883AEC
:2011D00010C00035E0BFFE1710800D171080004410C1FFCCE0BFFE1710C00D15E0BFF917CD
:2011D80010BFFFC4E0BFF915E0BFF9171005003A1000051EE0BFFE1710C00D17E0BFFE172B
:2011E00010800C1718BFE31EE0BFF9171005003A103F961EE0BFFE1710C0081700BFFF44BE
:2011E8001886703AE0BFFE1710C00815E0BFFE171080001711000104E0BFFE17108008172A
:2011F0001007883A2005883A10C00035E0BFFD171080010410800037003F8406E037883A69
:2011F800DF000017DEC00104F800283ADEFFFC04DF000315DF000304E13FFF15E0BFFF1741
:20120000E0BFFE15E0BFFE17108000171080010410800037E0BFFD15E0BFFD171081000C64
:201208001005003A10000C1EE0BFFE171080001711000104E0BFFE171080081710810014C4
:201210001007883A2005883A10C00035E0BFFE171000091500000A06E0BFFE1710C0091763
:2012180000A0003410BFFF0410C00536E0BFFE171080091710C00044E0BFFE1710C00915EB
:20122000008000341086EA0410800017E037883ADF000017DEC00104F800283ADEFFFC0426
:20122800DF000315DF000304E13FFD15E17FFE1500000706E0BFFE171090000C1005003A68
:201230001000031E00BFFD44E0BFFF1500000B06E0BFFD1710C00D17E0BFFD1710800C179C
:2012380018800526E0BFFD1710C00917E0BFFD171080011718BFEF36E03FFF15E0BFFF17F1
:20124000E037883ADF000017DEC00104F800283ADEFFF804DF000715DF000704E13FFB15D4
:20124800E17FFC15E1BFFD1500BFF9C4E0BFFA15E0BFFC17E0BFFF15E0FFFF17189A80604D
:201250001000041EE0FFFF17189A80A010001B1E00002706E0BFFB1710C0011700A00034A2
:2012580010BFFFC418802226E0BFFD1710800017E0BFF915E0BFF917108000901000071EF9
:20126000E0FFF91700A0003410BFFFC418800326E0BFF917E0BFFE150000030600E00034DA
:2012680018FFFF84E0FFFE15E0BFFB17E0FFFE1710C00115E03FFA1500000D06E0BFFB175D
:2012700010C0011700A0003410BFFFC418800826E13FFD17E0BFFB1710C00917E0BFFB17C4
:20127800108001171885803A20800015E03FFA15E0BFFA17E037883ADF000017DEC0010452
:20128000F800283ADEFFF204DFC00D15DF000C15DF000C04E13FFB15E17FFC15E1BFFD151E
:20128800E1FFFE15E0BFFC17E0BFFA1500004806E0BFFB1710800A17E0BFF715E0BFFB17E7
:2012900010800B17E0BFF615E0FFF717E0BFF61718800536E0BFF717E0FFF61710C5C83A06
:20129800E0BFF8150000040600820004E0FFF61710C5C83AE0BFF815E0BFF8171005003A8E
:2012A00010001F1EE0FFFD17E0BFF8171880022EE0BFFD17E0BFF815E0BFFB1710C00E0486
:2012A800E0BFF6171887883AE0BFFA171009883A180B883AE1BFF817102101C0E0FFF8171A
:2012B000E0BFFA1710C5883AE0BFFA15E0FFFD17E0BFF8171885C83AE0BFFD15E0FFF6174C
:2012B800E0BFF8171885883A10C1FFCCE0BFFB1710C00B15E0BFFD1710800048103FCC1E08
:2012C000E0FFFA17E0BFFC171880141EE0BFFE171090000C1004C03A1000101EE0BFFB1745
:2012C80010C00A17E0BFF7171880051EE0BFFB1710C00917E0BFFB171080011718BFF736AF
:2012D000E0BFFB1710C00A17E0BFF71718800326E0BFFD1710800048103FB51EE0FFFA1751
:2012D800E0BFFC17188019260005303AE0BFF515E0FFF51700BFFF841884703A1001703A27
:2012E000E0BFF517E0BFF915E0BFFB171080081710C00054E0BFFB1710C00815E0BFFB17C3
:2012E8001080001711000104E0BFFB17108008171007883A2005883A10C00035E0BFF91755
:2012F000E0BFF415E0BFF4171001703AE0FFFA17E0BFFC1718800526E0FFFA17E0BFFC17CA
:2012F8001887C83AE0FFFF1500000906E0BFFE171090000C1005003A1000031E00BFFD4453
:20130000E0BFFF150000020600BFFEC4E0BFFF15E0BFFF17E037883ADFC00117DF000017A3
:20130800DEC00204F800283ADEFFF204DFC00D15DF000C15DF000C04E13FFB15E17FFC15A3
:20131000E1BFFD15E1FFFE15E03FF915E0BFFC17E0BFF61500003A06E0BFFB1710800C17EB
:20131800E0BFFA15E0BFFB1710800D17E0BFF915E0FFFA17E0BFF9171880062EE0FFF9179B
:20132000E0BFFA171885C83A10BFFFC4E0BFF81500000C06E0BFF9171005003A1000051EDD
:2013280000820004E0FFFA1710C5C83AE0BFF815000004060081FFC4E0FFFA1710C5C83A97
:20133000E0BFF815E0BFF8171005003A10001F1EE0FFFD17E0BFF8171880022EE0BFFD178B
:20133800E0BFF815E0BFFB1710C20E04E0BFFA171885883AE0FFFC171009883A180B883A93
:20134000E1BFF817102101C0E0FFF817E0BFFC1710C5883AE0BFFC15E0FFFD17E0BFF81764
:201348001885C83AE0BFFD15E0FFFA17E0BFF8171885883A10C1FFCCE0BFFB1710C00C15FA
:20135000E0BFFD1710800048103FC31E0005303AE0BFF515E0FFF51700BFFF841884703A37
:201358001001703AE0BFF517E0BFF715E0BFFB171080081710C00094E0BFFB1710C0081502
:20136000E0BFFB171080001711000104E0BFFB17108008171007883A2005883A10C00035DA
:20136800E0BFF717E0BFF415E0BFF4171001703AE0BFFD17108000501000111EE0BFFE1725
:201370001090000C1004C03A1000101EE0BFFB1710C00D17E0BFF9171880051EE0BFFB17A5
:2013780010C00917E0BFFB171080011718BFF736E0BFFB1710C00D17E0BFF91718800326F3
:20138000E0BFFD1710800048103FCD1EE0FFFC17E0BFF61718800526E0FFFC17E0BFF61789
:201388001887C83AE0FFFF1500000906E0BFFE171090000C1005003A1000031E00BFFD44C2
:20139000E0BFFF150000020600BFFEC4E0BFFF15E0BFFF17E037883ADFC00117DF00001713
:20139800DEC00204F800283ADEFFFA04DFC00515DF000415DF000404E13FFF15E0BFFF17DB
:2013A00010000035E0BFFF1710800104108000370005303AE0BFFD15E0FFFD1700BFFF8482
:2013A8001884703A1001703AE0BFFD17E0BFFE151025C740E0BFFE17E0BFFC15E0BFFC176D
:2013B0001001703AE037883ADFC00117DF000017DEC00204F800283ADEFFF804DFC007154A
:2013B800DF000615DF000604E13FFC15E17FFD15E1BFFE15E1FFFF15E0BFFF17E0BFFB1584
:2013C000008000341086EA04108000171004C03A1000041E00C0003418C6EA04E0BFFB177D
:2013C80018800015E0BFFC17108001041007883A008001C418800035D8000015E13FFD1705
:2013D000E17FFE17019040B431939A04E1FFFC1710255100E037883ADFC00117DF000017A2
:2013D800DEC00204F800283ADEFFF404DF000B15DF000B04E13FFB15E17FFC15E1BFFD15E2
:2013E000E1FFFE15E03FF915008000341086EA04108000171005003A1000411EE0BFFB177F
:2013E8001005003A10003B1EE0FFFB17E0BFFD1718800315E0FFFB17E0BFFE171880051582
:2013F0000005303AE0BFF815E0FFF81700BFFF841884703A1001703AE0BFF817E0BFFA1535
:2013F800008000341086EB0410800017E0BFF915E0FFFC17E0BFF9171885883A10C0004434
:20140000E0BFFB1710C00215E0BFFB1710C00217E0BFF9171880042EE0FFFB17008000446C
:201408001880040500000206E0BFFB1710000405E0FFFB17008000341086E004E0BFF61588
:20141000E0FFF715E0FFF717E0BFF61718800115E0BFF61710C00017E0BFF71710C0001565
:20141800E0BFF61710C00017E0BFF71718800115E0FFF617E0BFF71718800015E0BFFA17D0
:20142000E0BFF515E0BFF5171001703AE03FFF150000050600BFFA84E0BFFF150000020667
:2014280000BFDE84E0BFFF15E0BFFF17E037883ADF000017DEC00104F800283ADEFFFE0470
:20143000DF000115DF000104E03FFF1500000506E0BFFF171000003BE0BFFF171080080434
:20143800E0BFFF15E0BFFF1710820030103FF81EE037883ADF000017DEC00104F800283A39
:20144000DEFFF904DFC00615DF000515DF000504E13FFD15E17FFE15E0BFFD171005003A70
:201448001000041EE0BFFD17108002171004C03A1000071E10251B401007883A0080058441
:201450001880001500BFFA84E0BFFF1500001306E0FFFD17E0BFFE17E0BFFB15E0FFFC1580
:20145800E0FFFC17E0BFFB1718800115E0BFFB1710C00017E0BFFC1710C00015E0BFFB1743
:2014600010C00017E0BFFC1718800115E0FFFB17E0BFFC1718800015E03FFF15E0BFFF17ED
:20146800E037883ADFC00117DF000017DEC00204F800283ADEFFFD04DFC00215DF00011557
:20147000DF000104008000341086D904108000171005003A1000061E008000341086D90400
:2014780010800017103EE83AE0BFFF1500000306008000341086E504E0BFFF15E0BFFF17E6
:20148000E037883ADFC00117DF000017DEC00204F800283ADEFFFC04DFC00315DF0002153E
:20148800DF000204E13FFF15E13FFF17D1600B04102544C0E0BFFE15E0BFFE171004C03A08
:201490001000041E102526C01007883A008004C418800015E0BFFE17E037883ADFC00117DD
:20149800DF000017DEC00204F800283ADEFFFD04DFC00215DF000115DF000104008000341F
:2014A0001086D904108000171005003A1000061E008000341086D90410800017103EE83A51
:2014A800E0BFFF1500000306008000341086E504E0BFFF15E0BFFF17E037883ADFC001173D
:2014B000DF000017DEC00204F800283ADEFFFC04DFC00315DF000215DF000204E13FFF1585
:2014B800E13FFF17D1600D04102544C0E0BFFE15E0BFFE171004C03A1000041E1025324016
:2014C0001007883A008004C418800015E0BFFE17E037883ADFC00117DF000017DEC0020460
:2014C800F800283ADEFFFD04DFC00215DF000115DF000104008000341086D904108000176F
:2014D0001005003A1000061E008000341086D90410800017103EE83AE0BFFF15000003067F
:2014D800008000341086E504E0BFFF15E0BFFF17E037883ADFC00117DF000017DEC002042F
:2014E000F800283ADEFFFD04DFC00215DF000115DF00010400BFFF0400D040B418D90504A5
:2014E8001885883AE0BFFF1500000606E0BFFF1710800017103EE83AE0BFFF1710BFFF0473
:2014F000E0BFFF15E0FFFF17009040B41099040418BFF62EE037883ADFC00117DF0000177E
:2014F800DEC00204F800283ADEFFFD04DFC00215DF000115DF00010400BFFF0400D040B4E3
:2015000018D905041885883AE0BFFF1500000606E0BFFF1710800017103EE83AE0BFFF1732
:2015080010BFFF04E0BFFF15E0FFFF17009040B41099050418BFF62EE037883ADFC0011788
:20151000DF000017DEC00204F800283ADEFFF904DFC00615DF000515DF000504E13FFD1520
:20151800E17FFE15E0BFFE1710800017E0BFFC15E13FFD1710202E8010800044E0BFFB15A0
:2015200000000D06E0BFFC1711000217E1BFFB17E17FFD17102605401004C03A1000031EDC
:20152800E0BFFC17E0BFFF1500000706E0BFFC1710800017E0BFFC15E0FFFE17E0BFFC1782
:2015300010FFF01EE03FFF15E0BFFF17E037883ADFC00117DF000017DEC00204F800283A12
:20153800DEFFFE04DFC00115DF000015D839883A0009883A014400041025F780E037883A9F
:20154000DFC00117DF000017DEC00204F800283ADEFFF904DFC00615DF000515DF0005046B
:20154800E13FFC15E17FFD15E1BFFE15E1FFFF15E0800217D8800015E13FFC17E17FFD17AC
:20155000E1BFFE17E1FFFF1710256E40E037883ADFC00117DF000017DEC00204F800283A69
:20155800DEFFF904DF000615DF000604E13FFE15E17FFF15E0BFFF17E0BFFC150005303A3B
:20156000E0BFFB15E0FFFB1700BFFF841884703A1001703AE0BFFB17E0BFFD15E0FFFC1734
:201568000080004410C4983A1007883A008000341086E904108000171886B03A0080003406
:201570001086E90410C00015008000341086E90410800017100170FAE0BFFD17E0BFFA1539
:20157800E0BFFA171001703A0005883AE037883ADF000017DEC00104F800283ADEFFF9047B
:20158000DF000615DF000604E13FFE15E17FFF15E0BFFF17E0BFFC150005303AE0BFFB153E
:20158800E0FFFB1700BFFF841884703A1001703AE0BFFB17E0BFFD15E0FFFC1700800044F7
:2015900010C4983A0084303A1007883A008000341086E904108000171886703A00800034F4
:201598001086E90410C00015008000341086E90410800017100170FAE0BFFD17E0BFFA1511
:2015A000E0BFFA171001703A0005883AE037883ADF000017DEC00104F800283ADEFFFC0450
:2015A800DF000315DF000304E13FFE15E17FFF15000530FAE0BFFD15E0FFFF170080004406
:2015B00010C4983A1007883AE0BFFD171884703A1004C03AE037883ADF000017DEC0010423
:2015B800F800283ADEFFF404DFC00B15DF000A15DF000A04E13FFB15E17FFC15E1BFFD15E7
:2015C000E1FFFE1500BFFA84E0BFFA15E0BFFC17E0BFF915E0BFF917108008081000291E28
:2015C8000005303AE0BFF715E0FFF71700BFFF841884703A1001703AE0BFF717E0BFF81560
:2015D000E0BFF91700C0003418C6F604100490FA10C7883AE0BFFD1718800015E0BFF9173A
:2015D80000C0003418C6F604100490FA10C5883A10C00104E0BFFE1718800015E0BFFD1709
:2015E0001005003A1000051EE17FF917E13FFB1710255600E0BFFF1500000406E17FF9170F
:2015E800E13FFB1710255FC0E0BFFF15E0BFFF17E0BFFA15E0BFF817E0BFF615E0BFF61743
:2015F0001001703AE0BFFA17E037883ADFC00117DF000017DEC00204F800283ADEFFF90412
:2015F800DFC00615DF000515DF000504E13FFC15E17FFD15E1BFFE15E1FFFF15E13FFD17BA
:20160000E17FFE17E1BFFF1710259F40E0BFFB15E0BFFB171004803A10001C1EE0BFFB1762
:2016080000C0003418C221041080032410C5883A10C00017E0BFFC1710C00015E0BFFB1752
:2016100000C0003418C221041080032410C5883A1080010410C00017E0BFFC1710C0011565
:20161800E0BFFB1700C0003418C221041080032410C5883A1080020410C00017E0BFFC1791
:2016200010C00215E13FFB1710233880E037883ADFC00117DF000017DEC00204F800283A22
:20162800DEFFFB04DFC00415DF000315DF000304E13FFD15E17FFE15E1BFFF1501000034A3
:2016300021022404E17FFD170180004401C07FC410257DC00100003421022104E17FFE17AE
:20163800000D883A01C07FC410257DC00100003421022704E17FFF170180004401C07FC48B
:2016400010257DC0E037883ADFC00117DF000017DEC00204F800283ADEFFFC04DF000315C0
:20164800DF000304E13FFE15E0BFFE171080021710D00034E0BFFE1710C00215E03FFD152C
:2016500000002006E0BFFD1700C0003418C221041080032410C5883A10C00017E0BFFE17C5
:20165800108000171880141EE0BFFD1700C0003418C221041080032410C5883A1080020477
:20166000108000171004403A10000B1EE0BFFD17108003241007883A00800034108221044E
:201668001887883AE0BFFE171880032600BFFCC4E0BFFF1500000A06E0BFFD1710800044C3
:20167000E0BFFD15008000341086D804108000171007883AE0BFFD1718BFDA2EE03FFF153E
:20167800E0BFFF17E037883ADF000017DEC00104F800283ADEFFF404DFC00B15DF000A153F
:20168000DF000A04E13FFB15E17FFC15E1BFFD1500BFFFC4E0BFF81500BFFB44E0BFF71533
:20168800E03FF615E13FFB17014000342946D604102544C0E0BFFA15E0BFFA171004C03A83
:201690001000051EE13FFB171025DA00E0BFFA1500800044E0BFF615E0BFFA171005003AAB
:201698001000301EE13FFA171025EC00E0BFF815E0BFF8171004403A1000031EE0BFF817BB
:2016A000E0BFF71500002906E0BFF817108003241007883A00800034108221041885883A48
:2016A800E0BFF915E0FFFC170090003410BFFFC41886703AE0BFF91710C00215E0BFF617A3
:2016B0001004C03A1000061EE13FF91710259180E0BFF715E0BFF7171004803A1000131EFB
:2016B800E0BFFA17108003171005003A1000091EE0BFFA1710800317E13FF917E17FFB1736
:2016C000E1BFFC17E1FFFD17103EE83AE0BFFF1500000106E03FFF15E0BFFF17E0BFF715A6
:2016C8000000020600BFFB44E0BFF715E0BFF7171004403A1000091EE13FF81710233880C5
:2016D0001025B7C0E0FFF71700C7C83A10C0001500BFFFC4E0BFFE1500000206E0BFF817C9
:2016D800E0BFFE15E0BFFE17E037883ADFC00117DF000017DEC00204F800283ADEFFFD042A
:2016E000DFC00215DF000115DF000104008000341086D904108000171005003A1000061E0A
:2016E800008000341086D90410800017103EE83AE0BFFF1500000306008000341086E504B5
:2016F000E0BFFF15E0BFFF17E037883ADFC00117DF000017DEC00204F800283ADEFFFA0413
:2016F800DF000515DF000504E13FFF150005303AE0BFFD15E0FFFD1700BFFF841884703A22
:201700001001703AE0BFFD17E0BFFE15E0BFFF17E0BFFC15E0BFFC1710C00017E0BFFC17F9
:201708001080011718800115E0BFFC1710C00117E0BFFC171080001718800015E0FFFC17D9
:20171000E0BFFC1718800115E0FFFC17E0BFFC1718800015E0BFFE17E0BFFB15E0BFFB17F4
:201718001001703AE037883ADF000017DEC00104F800283ADEFFFB04DFC00415DF0003159F
:20172000DF000304D0A01017E0BFFE15D0A01B1710800044D0A01B1500003106E0BFFE1779
:2017280010800017E0BFFF15E0BFFE171080040310803FCC1005003A1000051ED0A01B173D
:201730001004C03A1000021EE0BFFE1710000405E0BFFE1710C00217D0A01B1710C01E362B
:20173800E0BFFE171080040310803FCC1004C03A1000191EE0BFFE1710C00317E0BFFE1704
:2017400011000517183EE83AE0BFFD15E0BFFD171004C03A1000031EE13FFE171025BDC05A
:2017480000000D06E0BFFE1710C00217E0BFFD171887883AE0BFFE1710C00215E0BFFE176E
:2017500010C00217D0A01B171880032EE0FFFE170080004418800405E0BFFF17E0BFFE1565
:20175800D0E01004E0BFFE1710FFCC1EE037883ADFC00117DF000017DEC00204F800283A7C
:20176000DEFFFF04DF000015D839883A000170FAE037883ADF000017DEC00104F800283A8B
:20176800DEFFFA04DFC00515DF000415DF000404E13FFE15008000341086D40410800017F2
:20177000E0BFFD1500003306E0BFFD171100021710202E80E0BFFC15E0BFFD1710C0021768
:20177800E0BFFC171885883A10BFFFC41080000310803FCC1080201C10BFE00410800BD88E
:201780001000031EE0BFFC1710BFFFC4E0BFFC15E0BFFC171007883AE0BFFE171885883A86
:201788001080000310803FCC1080201C10BFE00410800BE010000A1EE0BFFC171007883A56
:20179000E0BFFE171885883A1080000310803FCC1080201C10BFE0041004C03A10000A1E33
:20179800E0BFFD1711000217E1BFFC17E17FFE17102605401004C03A1000031EE0BFFD17BF
:2017A000E0BFFF1500000806E0BFFD1710800017E0BFFD1500C0003418C6D404E0BFFD1700
:2017A80010FFC91EE03FFF15E0BFFF17E037883ADFC00117DF000017DEC00204F800283ABF
:2017B000DEFFFC04DF000315DF000304E13FFF1500BFFA04E0BFFD15E03FFE1500001E0667
:2017B800E0BFFE1700C0003418C221041080032410C5883A108000171004C03A1000131E26
:2017C000E0BFFE1700C0003418C221041080032410C7883AE0BFFF171880001500800034FC
:2017C8001086D80410C00017E0BFFE171880040E00C0003418C6D804E0BFFE17188000153B
:2017D000E0BFFE17E0BFFD1500000606E0BFFE1710800044E0BFFE15E0BFFE1710800810F2
:2017D800103FDF1EE0BFFD17E037883ADF000017DEC00104F800283ADEFFFB04DF00041552
:2017E000DF000404E13FFE15E17FFF15E0BFFF17108400701000021E00840004E0BFFF1537
:2017E800E0FFFE17E0BFFF171885883AE0BFFC15E0BFFE17E0BFFD1500000506E0BFFD1706
:2017F0001000603AE0BFFD1710800804E0BFFD15E0FFFD17E0BFFC1718BFF836E0BFFE17D1
:2017F800108007CC1005003A1000021EE0BFFD171000603A0000203AE037883ADF00001769
:20180000DEC00104F800283A200B883A000D883A0009883A000F883A10260C81DEFFFE04D1
:20180800000B883ADC000015DFC001152021883A10262000008000341086D10411000017AD
:2018100020800F1710000126103EE83A8009883A10263F0000C000C41980032E2144B03AEE
:2018180010C4703A10000F2631FFFFC43000061E00000A0639FFFFC400BFFFC421000044B4
:20182000294000443880052620C000032880000318BFF8261885C83AF800283A0005883AD5
:20182800F800283A180F883A20C000172880001718BFED1E31BFFF0421000104294001043E
:2018300039BFF936003FE806DEFFFA04008000341086D104DC00001514000017DD00041538
:201838002829883A81405217DCC00315DC800215DC400115DFC005152023883A3027883A23
:201840003825883A2800252629000117008007C4110027168800101E2105883A1085883A27
:2018480020C000441145883A0009883A1500021528C001152005883ADFC00517DD000417B5
:20185000DCC00317DC800217DC400117DC000017DEC00604F800283A298022040080004491
:20185800110E983A30C040172105883A1085883A1185883A19C6B03A1480201514C0001526
:201860000080008430C0401588BFE31E3080411711C4B03A30804115003FDF060080003432
:2018680010873604100B883A80805215003FD60600800034108000041000021E013FFFC4B5
:20187000003FDC0601006404103EE83A1007883A103FFA2680805217180B883A180001159A
:201878001880001580C0521518006215180063150009883A883FC826003FD706F800283AE7
:20188000008000341086D10410800017DEFFF304DF000B15D88001150080003410800004F9
:201888001005003AD8800215D8800117DD400815DD00071510805204DFC00C15DDC00A157D
:20189000DD800915DCC00615DC800515DC400415DC000315282B883A2039883AD8800015CA
:201898002829003AD88001171440521788001026DDC00017888001178C802204143FFFC49E
:2018A0008000091605BFFFC4A000151E8409883A2105883A1485883A10C02017A8C01126F7
:2018A800843FFFC485BFF81ED880021710003126DFC00C17DF000B17DDC00A17DD8009176A
:2018B000DD400817DD000717DCC00617DC800517DC400417DC000317DEC00D04F800283A7A
:2018B8008409883A88C001172105883A1445883A18FFFFC4118002171C001526100002155C
:2018C000303FE72600C000441C06983A908040178CC001171884703A1000142690804117D1
:2018C8001884703A10000C1E2105883A1485883A11400017E009883A303EE83A888001177A
:2018D00098BFC81EB8800017147FD526003FC5068C000115003FEA062105883A1485883AC0
:2018D80011000017303EE83A003FF406303EE83A003FF206888001171000081E8900001742
:2018E00020000726B90000158809883A00000000BC400017883FB71E003FC5068900001721
:2018E800882F883A2023883A883FB21E003FC006DEFFFD04DF000215DF000204E13FFF15D9
:2018F000E0BFFF17E0BFFE15E0BFFE171005003A1000021E002AF07000000106002AF0B0E3
:2018F800E037883ADF000017DEC00104F800283ADEFFFD04DFC00215DF000115DF00010497
:20190000E13FFF15E13FFF1710263B00003FFF06410261FC6C6C65487266206F4E206D6FD2
:2019080020736F69002149490000000A000000437665642F6C756E2F0000006C7665642F8E
:2019100061746A2F61755F67000074727665642F616D642F000000007665642F61746A2F1C
:2019180061755F670000747200000000000003400000039C000003F8000000000000000050
:2019200000000000000000000000000000000000000000000000000000000000000000188F
:2019280000000000000000000000000000000000000000000000000000000000000000009F
:20193000000000000000000000000000000000000000000000000000000000000000000097
:2019380000000000000000000000000000000000000000000000000000000000000000008F
:201940000000000000000000000000000000000100000000ABCD330EE66D12340005DEEC65
:201948000000000B0000000000000000000000000000000000000000000000000000000074
:20195000000000000000000000000000000000000000000000000000000000000000000077
:2019580000000000000000000000000000000000000000000000000000000000000000006F
:20196000000000000000000000000000000000000000000000000000000000000000000067
:2019680000000000000000000000000000000000000000000000000000000000000000005F
:20197000000000000000000000000000000000000000000000000000000000000000000057
:2019780000000000000000000000000000000000000000000000000000000000000000004F
:20198000000000000000000000000000000000000000000000000000000000000000000047
:2019880000000000000000000000000000000000000000000000000000000000000000003F
:20199000000000000000000000000000000000000000000000000000000000000000000037
:2019980000000000000000000000000000000000000000000000000000000000000000002F
:2019A000000000000000000000000000000000000000000000000000000000000000000027
:2019A80000000000000000000000000000000000000000000000000000000000000000001F
:2019B000000000000000000000000000000000000000000000000000000000000000000017
:2019B80000000000000000000000000000000000000000000000000000000000000000000F
:2019C000000000000000000000000000000000000000000000000000000000000000000007
:2019C8000000000000000000000000000000000000000000000000000000000000000000FF
:2019D0000000000000000000000000000000000000000000000000000000000000000000F7
:2019D8000000000000000000000000000000000000000000000000000000000000000000EF
:2019E0000000000000000000000000000000000000000000000000000000000000000000E7
:2019E8000000000000000000000000000000000000000000000000000000000000000000DF
:2019F0000000000000000000000000000000000000000000000000000000000000000000D7
:2019F8000000000000000000000000000000000000000000000000000000000000000000CF
:201A00000000000000000000000000000000000000000000000000000000000000000000C6
:201A08000000000000000000000000000000000000000000000000000000000000000000BE
:201A10000000000000000000000000000000000000000000000000000000000000000000B6
:201A18000000000000000000000000000000000000000454000004540000045C0000045C3E
:201A200000000464000004640000046C0000046C00000474000004740000047C0000047C06
:201A280000000484000004840000048C0000048C00000494000004940000049C0000049CFE
:201A3000000004A4000004A4000004AC000004AC000004B4000004B4000004BC000004BCF6
:201A3800000004C4000004C4000004CC000004CC000004D4000004D4000004DC000004DCEE
:201A4000000004E4000004E4000004EC000004EC000004F4000004F4000004FC000004FCE6
